:1000000000040010ED000000E9000000E500000021
:1000100000000000000000000000000011FBFFEFE6
:10002000000000000000000000000000E1000000EF
:100030000000000000000000DD000000D90000000A
:1000400055010000D500000000000000D5000000B0
:10005000D5000000D50000000000000000000000F6
:1000600065010000E1050000D5000000D50000009A
:10007000D5000000D500000000000000D500000001
:100080000000000000000000000000000000000070
:100090000000000000000000000000000000000060
:1000A000D5000000D5000000D5000000D5000000FC
:1000B000D5000000D5000000D5000000D5000000EC
:1000C0007C0A00000000001000000000000000108A
:1000D000A0010000FEE7C046FEE7C046FEE7C046BE
:1000E000FEE7C046FEE7C046FEE7C04670B5164ACA
:1000F000164DAA420ED2146850680C32131F1968AC
:1001000000230029F5D01E591E5004339942FAD815
:10011000AA42F0D30E4B9A4212D2D1430024C918FE
:10012000C9080131C900511850681568002300281A
:1001300003D05C5104339842FBD808329142F3D18A
:1001400000F078FCFEE7C046C0000000CC000000D4
:10015000D4000000024B9A6AD20700D55B69704751
:10016000008005408022B24B1202996930B51142DD
:1001700023D19A69D2051DD5C0225968D2000A4000
:10018000802189008A4232D08021C9008A4216D05B
:10019000002A0FD15A689204920F012A6AD00021D6
:1001A000022A3AD00022A34B5A701970A04B013298
:1001B0001A6401E003221A6430BD5A60FCE79D4BCB
:1001C0001A789B78502A63D09F2B1CD9A92B55D81D
:1001D0001A00A03A52102132D200DB0769D5964BA3
:1001E0009A185278924B5A6401221A64E4E7596CC7
:1001F000904BC8B25A78002A38D0012A11D0032275
:100200008B4B1A64D8E71F2259091A4034234B43F9
:100210008949CB189B181A7EE4E7196D4908C9B2C1
:10022000C0E71C789B78502C72D09F2B58D9A92BF3
:1002300060D81800A03840101A4200D1A6E0F02380
:1002400002001B0109027C4C21321940D300E35CFF
:100250001943D200A15034221300784A434351433A
:10026000E31859600122724B1A64A5E701329870B5
:100270005A70F7E7D96C4908C9B293E7AE2B1BD97E
:10028000AF2B69D00233DBB2012BB8D80122A9E72A
:10029000072B00D1DAE015D8032B00D1C2E052D8E9
:1002A000012B00D1AFE000D9A9E05C23644AD25C05
:1002B00098E7614B9A5C95E75F4A893BDB00D3186E
:1002C0001A798FE70F2B5CD80B2B00D3A8E0092BF2
:1002D00000D1A1E000D99BE05E23594AD25C81E7BE
:1002E0001F2259091A4034234B435349CB189B18FA
:1002F0001876B7E7AE2B55D9AF2B00D1E4E0FF2B32
:10030000B0D1002800D1F2E04E4A4B4B1A60A9E769
:10031000062B00D114E154D8022B00D1EBE000D819
:10032000B2E0042B00D1FFE000D9F0E0F023602020
:10033000434A1B0109021940135C0B434249135203
:100340004B43D3618EE7052B00D198E000D991E0B3
:1003500064233B4AD25C45E737498B6C0A7D5B00DE
:100360001A43CB6FD2B29B001A43B023CB58D2B200
:10037000DB001A43D3B2E4228A5812011A43D2B2E4
:1003800030E7FE2B00D23AE701222BE702002A4C8D
:100390002132D300E558F0231B012B40FF252940D3
:1003A000194356E70F221C002349893BDB0010400C
:1003B000CB18253258601300AA3C6343CB18186150
:1003C00050E70A2B00D1DFE071D8082B00D1CDE037
:1003D00000D9BDE001230100194A194051614108CB
:1003E0001940D162810819405164C10819409161D6
:1003F00001094009194003401163936432E7602307
:100400000F4AD25CEEE65C230D4AD25A120AE9E6A4
:1004100066230B4AD25CE5E66223094AD25CE1E638
:100420000022DFE66023064AD25A120ADAE6C04604
:100430000000054000000010080000101BB700007D
:100440003801001000093D00B0710B005D498B6957
:10045000DA004B691A43CB6A5B001A430B6B1B0132
:100460001A434B6C9B001A438B6CD2B25B011A434C
:10047000D2B2B7E6FF22534BDB6C1A40B2E66423DC
:10048000504AD25A120AADE6002B00D18AE0012B65
:1004900000D0B4E6F0235C204A4A1B01090219404F
:1004A000135C0B43484913524B435360DAE60F2B5E
:1004B00000D8D7E6FF2B00D0A1E6002800D07DE0D1
:1004C000424A404B1A60CDE60122414B02405A613C
:1004D000022202409A6404220240DA670822B02114
:1004E00002405A5010221040D4329850BAE6374A8F
:1004F000374B1A60B6E66021F023324A1B01545A8A
:1005000023401843304B50525843D061AAE6F023A1
:1005100064202C4A1B0109021940135C0B432A4931
:1005200013524B4353639DE66421F023254A1B017C
:10053000545A23401843244B50525843506391E679
:100540001F23204A1840234BD0645843106589E686
:100550001F231C4A18404333D0524000443B034001
:1005600001331D495B005B5A93627BE61F23154AEA
:1005700018403F33D0524000403B034001331649FE
:100580005B005B5A13616DE61F230E4A1840473328
:10059000D0524000483B034001330F495B005B5A97
:1005A00013645FE65C21F023064A1B01545A234082
:1005B0001843054B50525843506053E6074A014BCD
:1005C0001A604FE638010010B0710B00999E36009A
:1005D0000800001060E316003C0A000000093D001E
:1005E000A12370B5094E0A4DB2889B00EA5200F073
:1005F00063F9040000F0B0F90222F42364108010C3
:100600002018A030B080EA5070BDC0460000001035
:10061000004000508E218020F0B55F4656464D4682
:100620004446924B89005A58F0B482435A500022F3
:1006300003217F381A645A64586419675A675867E7
:1006400001329960DC68894801212242FAD0802574
:10065000874A4359402613434351C2239B009C467B
:10066000844A844CD35862463343A350824C493A5F
:10067000FF3AA35880273343A350804BFF04994689
:1006800000234A461361A2691202120A3A437C4FC0
:10069000A261B8467B4A17607B4F51619765474618
:1006A0009161D16211635164916453609360D3602E
:1006B0001361D36113625362936253639363D36391
:1006C000136413655365714A1760842751619164FF
:1006D00053609360D36013619361D361136253627B
:1006E0009362D362136353639363D363136453645A
:1006F000D364136553659365D36513665366936638
:10070000D366136753679367D167D3510437D351C7
:100710000437D3510437D3510437D3510437D3515D
:100720000437D3510437D351BA460437D351043771
:10073000D3510437D3510437D1510437D35104373F
:10074000D3510437D3510437D3510437D35104372D
:10075000D3510437D3510437D3510437D35104371D
:10076000D3510437D3510437D3510437D15104370F
:10077000D3510437D3510437D3510437D3510437FD
:10078000D3510437D35104375351B846D3510437AA
:10079000D35142593E4F3A4342514268FF27B24338
:1007A000426042681643466056463A4A5361D664F0
:1007B00002361665E6693602360AE661266ABE43E7
:1007C000B246052657463E43266280244E46E40044
:1007D0007464F460812602243602146096604246F6
:1007E000244E326042592C4E3243425145682B4AC6
:1007F000A0262A40454642604268B6002A4342602D
:100800008020274A800210600420264D9080955356
:10081000013EFF3E95538026234D76015353013D03
:10082000FF3D53530335FF355353013DFF3D5353B4
:100830007D35FF3551510435565165461B4E51519A
:100840000435565104355151C521194D8900555073
:10085000ED31FF31545017495050F021946505484F
:1008600054501131FF3101609380FEE70080044055
:10087000C000040000E100E000C00040004004406F
:10088000999E360038010010FFFF0000080000109C
:10089000A00004000000054000010400FFFEFFFF6F
:1008A00000400050FF030000820200000110000021
:1008B000021000000405000070B526490A680020F7
:1008C0004C6D14444C650D6D661B8C6D09D84E65DE
:1008D00009252540EE087540ED0364082C43A4B2B9
:1008E0008C65012323408C6814448C604D68661B22
:1008F000CC6802D88E60E443CC604D692C4302D0B2
:100900008C691C4301D10C6920440C6A14440C62AC
:10091000CD69661B4C6A02D80E62E4434C62CD6A14
:100920002C4302D00C6B1C4301D18C6A20448C6B8D
:1009300014448C634D6B661BCC6B02D88E63E4430E
:10094000CC634D6C2C4302D08C6C1C4301D10C6CDD
:10095000204470BD38010010F0B535490A68002008
:100960001F2318248D6815448D604E68AF1BCD6819
:1009700003D88F6001351D40CD604E69364304D0E9
:100980000D442D570E697543284434318D68154444
:100990008D604E68AF1BCD6803D88F6001351D4058
:1009A000CD604E69364304D00D442D570E69754312
:1009B000284434318D6815448D604E68AF1BCD6876
:1009C00003D88F6001351D40CD604E69364304D099
:1009D0000D442D570E697543284434318D681544F4
:1009E0008D604E68AF1BCD6803D88F6001351D4008
:1009F000CD604E69364304D00D442D570E697543C2
:100A0000284434318D6815448D604E68AF1BCD6825
:100A100003D88F6001351D40CD604E69364304D048
:100A20000D442D570E69754328440011F0BD000098
:100A30000800001010B5FFF7EDFD10BD000000002C
:100A4000010001000200020003000400050006008E
:100A50000700080009000B000D001000130017002C
:100A60001B00200026002D00360040004C005A00DC
:0C0A70006B0080009800B400D600FF006E
:04000003000000ED0C
:00000001FF
